:020000040000fa
:080000000001040000000000f3
:020000040000fa
:040008003c020000b6
:020000040000fa
:04000c007e02000070
:020000040000fa
:04001000be0200002c
:020000040000fa
:040014005c0200008a
:020000040000fa
:040018009e02000044
:020000040000fa
:04001c00de02000000
:020000040000fa
:04002000de020000fc
:020000040000fa
:04002400de020000f8
:020000040000fa
:04002800de020000f4
:020000040000fa
:04002c00de020000f0
:020000040000fa
:04003000de020000ec
:020000040000fa
:04003400de020000e8
:020000040000fa
:04003800de020000e4
:020000040000fa
:04003c00de020000e0
:020000040000fa
:04004000de020000dc
:020000040000fa
:04004400de020000d8
:020000040000fa
:04004800de020000d4
:020000040000fa
:04004c00de020000d0
:020000040000fa
:04005000de020000cc
:020000040000fa
:04005400de020000c8
:020000040000fa
:04005800de020000c4
:020000040000fa
:04005c00de020000c0
:020000040000fa
:04006000de020000bc
:020000040000fa
:04006400de020000b8
:020000040000fa
:04006800de020000b4
:020000040000fa
:04006c00de020000b0
:020000040000fa
:04007000de020000ac
:020000040000fa
:04007400de020000a8
:020000040000fa
:04007800de020000a4
:020000040000fa
:04007c00de020000a0
:020000040000fa
:04008000de0200009c
:020000040000fa
:04008400de02000098
:020000040000fa
:04008800de02000094
:020000040000fa
:04008c00de02000090
:020000040000fa
:04009000de0200008c
:020000040000fa
:04009400de02000088
:020000040000fa
:04009800de02000084
:020000040000fa
:04009c00de02000080
:020000040000fa
:0400a000de0200007c
:020000040000fa
:0400a400de02000078
:020000040000fa
:0400a800de02000074
:020000040000fa
:0400ac00de02000070
:020000040000fa
:0400b000de0200006c
:020000040000fa
:0400b400de02000068
:020000040000fa
:0400b800de02000064
:020000040000fa
:0400bc00de02000060
:020000040000fa
:0400c000de0200005c
:020000040000fa
:0400c400de02000058
:020000040000fa
:0400c800de02000054
:020000040000fa
:0400cc00de02000050
:020000040000fa
:0400d000de0200004c
:020000040000fa
:0400d400de02000048
:020000040000fa
:0400d800de02000044
:020000040000fa
:0400dc00de02000040
:020000040000fa
:0400e000de0200003c
:020000040000fa
:0400e400de02000038
:020000040000fa
:0400e800de02000034
:020000040000fa
:0400ec00de02000030
:020000040000fa
:0400f000de0200002c
:020000040000fa
:0400f400de02000028
:020000040000fa
:0400f800de02000024
:020000040000fa
:0400fc00de02000020
:020000040000fa
:04010000de0200001b
:020000040000fa
:04010400de02000017
:020000040000fa
:04010800de02000013
:020000040000fa
:04010c00de0200000f
:020000040000fa
:04011000de0200000b
:020000040000fa
:04011400de02000007
:020000040000fa
:04011800de02000003
:020000040000fa
:04011c00de020000ff
:020000040000fa
:04012000de020000fb
:020000040000fa
:04012400de020000f7
:020000040000fa
:04012800de020000f3
:020000040000fa
:04012c00de020000ef
:020000040000fa
:04013000de020000eb
:020000040000fa
:04013400de020000e7
:020000040000fa
:04013800de020000e3
:020000040000fa
:04013c00de020000df
:020000040000fa
:04014000de020000db
:020000040000fa
:04014400de020000d7
:020000040000fa
:04014800de020000d3
:020000040000fa
:04014c00de020000cf
:020000040000fa
:04015000de020000cb
:020000040000fa
:04015400de020000c7
:020000040000fa
:04015800de020000c3
:020000040000fa
:04015c00de020000bf
:020000040000fa
:04016000de020000bb
:020000040000fa
:04016400de020000b7
:020000040000fa
:04016800de020000b3
:020000040000fa
:04016c00de020000af
:020000040000fa
:04017000de020000ab
:020000040000fa
:04017400de020000a7
:020000040000fa
:04017800de020000a3
:020000040000fa
:04017c00de0200009f
:020000040000fa
:04018000de0200009b
:020000040000fa
:04018400de02000097
:020000040000fa
:04018800de02000093
:020000040000fa
:04018c00de0200008f
:020000040000fa
:04019000de0200008b
:020000040000fa
:04019400de02000087
:020000040000fa
:04019800de02000083
:020000040000fa
:04019c00de0200007f
:020000040000fa
:0401a000de0200007b
:020000040000fa
:0401a400de02000077
:020000040000fa
:0401a800de02000073
:020000040000fa
:0401ac00de0200006f
:020000040000fa
:0401b000de0200006b
:020000040000fa
:0401b400de02000067
:020000040000fa
:0401b800de02000063
:020000040000fa
:0401bc00de0200005f
:020000040000fa
:0401c000de0200005b
:020000040000fa
:0401c400de02000057
:020000040000fa
:0401c800de02000053
:020000040000fa
:0401cc00de0200004f
:020000040000fa
:0401d000de0200004b
:020000040000fa
:0401d400de02000047
:020000040000fa
:0401d800de02000043
:020000040000fa
:0401dc00de0200003f
:020000040000fa
:0401e000de0200003b
:020000040000fa
:0401e400de02000037
:020000040000fa
:0401e800de02000033
:020000040000fa
:0401ec00de0200002f
:020000040000fa
:0401f000de0200002b
:020000040000fa
:0401f400de02000027
:020000040000fa
:0401f800de02000023
:020000040000fa
:0401fc00de0200001f
:020000040000fa
:100200006f8b20000e7f24000e018800000000008c
:10021000000020000000e000020032000001200089
:1002200020028800140007001c0107000000e00005
:1002300003003a0000822500010020000200370080
:100240000000200001002000810f7000010032003a
:1002500014000700000020000000e000020032004f
:100260000000020000000000e25202000000000056
:100270000040da000000fe004440a900402d2000ac
:100280000000e00003003200002020009001880000
:100290004440a800000006008a1f78008b1f7800e9
:1002a00000000600a1028800800478000000eb0036
:1002b0001f003700e284440054a0b4009905ba003e
:1002c000e284440054a0b4009906ba00e2844400d9
:1002d00054a0b4000006eb00476fde00fd07b2003b
:1002e000ae018800636ce10003003a00eaff0700fa
:1002f0000000eb000e003700606ce10008003a00df
:10030000004deb000a05e800020039003420ec0043
:100310000af0a0008b05e900f9ff3e000400370059
:100320006168e100010032000086eb000b0007006d
:1003300019c7ba001905ba000e04e00003003a001c
:100340000a00e000dbff3a0000000600fe07b200f2
:10035000ae0288008a047800f5ff37000cd0a300b5
:10036000e20f4d001c00390089027800354dba00bb
:100370000a05e800020039003420ec000af0a00071
:100380008b05e9000f003200254dba000a05e80090
:10039000020039003420ec000af0a0008b05e900cf
:1003a000080032000c00e0000600320015cdba0053
:1003b0000a05e800020039003420ec000af0a00031
:1003c0008b05e9008984e80054a0b4000b00e0002c
:1003d000e2ff3a00000006009902ba00055d7800cd
:1003e0008b05e900f7ff3200c82ade00055d7800c2
:1003f0008b05e900f3ff32000c00e000f1ff320052
:1004000019ddba00eeff3700485404000000000078
:10041000ee58040000000000a45404000000000096
:10042000be54040000000000fa5404000000000064
:1004300032550400000000006c550400000000006c
:1004400078550400000000009e55040000000000e4
:100450008255040000000000f8580400000000006d
:10046000f6040400000000009a04040000000000ec
:1004700064040400000000003600f800809fbe0005
:10048000829fbe00849fbe00869fbe000000fa00cf
:100490008020a9000000eb00692b07000080fa0013
:1004a0004f03be004f02be004f01be004f00be0012
:1004b0003600f900004006003600f800809fbe00bc
:1004c000829fbe00849fbe00869fbe000000fa008f
:1004d000602b07008040a90010002000582b070067
:1004e0000080fa004f03be004f02be004f01be0065
:1004f0004f00be003600f900004006003600f8004c
:10050000809fbe00829fbe00849fbe00869fbe006b
:100510000000fa008060a90020002000482b07009e
:100520000080fa004f03be004f02be004f01be0024
:100530004f00be003600f900004006003600f8000b
:10054000809fbe00829fbe00849fbe00869fbe002b
:100550000000fa008080a90030002000382b07003e
:100560000080fa004f03be004f02be004f01be00e4
:100570004f00be003600f900004006003600f800cb
:10058000809fbe00829fbe00849fbe00869fbe00eb
:100590000000fa008600a90070002000282b070048
:1005a0000080fa004f03be004f02be004f01be00a4
:1005b0004f00be003600f900004006000040da009f
:1005c0000000fe00ec8747008e1f78006c87570004
:1005d00044002000041f7800000f78006c8757004b
:1005e00002afbe00e1bf9f006c8057009606070077
:1005f0001e00be004f077800cf00b10000000600cb
:10060000ec8747008e1f780011002000a1bf9f00db
:100610006c875700002f78006c8057008c0607000d
:100620001e0078004f077800cf00b10000000600e0
:100630000800fa008e81e800800978006400470015
:10064000010878006600470002087800660047004d
:10065000100f78000a00370064004700100078008f
:1006600010407800e4004700910078000101e800a4
:10067000e400470082087800e02907001e0fe90027
:100680001e0078000000e000f3ff3a00660047001b
:10069000100078000080fa0000000600000005004d
:1006a0006022b800060220000000d0008180d20045
:1006b0000482d2008582d2000000a0000202520013
:1006c00083825a00030031000202420083824a0002
:1006d0000000a1000603e900f3ff3a000000060055
:1006e000efff07000400be00000006008001780054
:1006f00002003700b15978000201e9000200e00071
:10070000fcff3a0000000600889fbe008a9fbe00e2
:10071000800478000200e0005a00320001407800b6
:10072000814c780082814400f1f99f00e20f510072
:100730005400360091449800a1449800e1f99f00cc
:10074000d1f99f00e60f51004e003600b1449800e9
:10075000c1f99f00e80f51004a0036000905ea0080
:10076000630565000a8444000a055100c1ff2f009b
:10077000010565000080fb008000eb0012102000e6
:10078000131020002a060700008cbe000a01440056
:1007900060b99f0071b99f00e80f5500390036001d
:1007a00020049800310498004004980051049800f7
:1007b00020b99f0031b99f0040b99f0051b99f00f7
:1007c000f80f55002f00360060049800710498005f
:1007d000000c9800110c9800200c9800310c980027
:1007e000400c9800510c980020b19f0031b19f003f
:1007f00040b19f0051b19f0060b19f0071b19f0057
:1008000000b99f0011b99f006401640078014100a4
:1008100002044400020555006011b8000203be0046
:100820000002be000403be006022b8000000720097
:100830008180720002017300838173000f00370012
:1008400008027800009abe00029abe00009abe001c
:100850000292be00000c9800110c9800220c980027
:10086000330c9800400c9800510c9800620c9800d2
:10087000730c98000a02b1000802b000ff0f550087
:10088000efff3e00090078004f05be004f04be0098
:1008900000000600e140800091007800850007001c
:1008a000110020000000e00005003500e04080005d
:1008b00090007800a0002000c2000700cf00de00fa
:1008c0000100ea000000060000000600208220006f
:1008d00000000600fdff070000418800f04088008e
:1008e00000000600889fbe008a1f78008004780000
:1008f0004900900002047800800f54000100360087
:1009000000047800080178006a8544001a00780025
:1009100076ff07001a004400000d7800e8844400c8
:10092000990c14000048eb004f0578004f04be00fe
:1009300000000600100078003dff37009001900095
:100940000388a30001003200e6ff37000348a3003c
:1009500001003a00f7ff070000000600889fbe0074
:100960008a1f780000047800010578000000eb0081
:100970000800e0001a003200180090000058a300a0
:100980000c003200ea04440068009000990f100047
:1009900008003600b80990000001eb0082007800e2
:1009a00008007800030001000080eb001900e0005f
:1009b0000b003200740044000008eb006c0044009f
:1009c0000008eb006a0044000008eb000000eb00a8
:1009d0000a00e000020032001800780008ff07005b
:1009e0004f0578004f04be0000000600889fbe003f
:1009f0008a1f78000004be000000eb000800e00041
:100a000029003200180090000058a30012003200a4
:100a10006a054400680090009a0f10000800360034
:100a2000b80990000001eb0082007800080078000f
:100a3000030001000080eb001a00e0001a00320001
:100a4000740044000008eb006c0044000008eb0058
:100a50006a0044000008eb00780a9000081090003b
:100a6000800f5200060031000002520011002000e9
:100a7000cfa2de00612bb90018007800d1fe07007c
:100a800000022000080040000008eb007e00440047
:100a90000008eb000000eb000900e000020032005b
:100aa00018007800d6fe07004f0578004f04be00fe
:100ab00000000600889fbe008a1f7800800478002e
:100ac00001057800090078003f0007000004780065
:100ad0008a017800080178001100200009007800e0
:100ae0000a000700800078000080eb00888f50002b
:100af00001003a000000eb004f0578004f04be00f3
:100b00000000060010007800c9fe3700889fbe0074
:100b10008a9fbe00810478000204780009c5b900ec
:100b20000900e00001003a000004eb000a0178002f
:100b300080007800030078007eff070080007800c6
:100b40008a8f500003003200110009008980d8000c
:100b500000047800080078004f05be004f04be0076
:100b6000000006000200fa00000178000100780091
:100b7000e2ff9f00900090000188a3000600320071
:100b8000ea01400093007800825878000280fb0060
:100b90008109780009003700120020008f80e900e9
:100ba00064ff0700800078000080eb000100e00097
:100bb00002003200eff897000180fb000080fa008d
:100bc00000000600e7ff37008000780004003700cf
:100bd0003104e00002003a0000005100000006006d
:100be000010178000108a300f9ff3a0081017800b3
:100bf00031017800f4ef2f00020242000281ea0086
:100c0000020162000408280004016100f7ff3200bd
:100c100083007800010178003104e000fdff3a0014
:100c200000005100000006000000fa00cfb8970055
:100c300068815700e040800010007800df01070065
:100c40000080fa0000000600040007005c000700b6
:100c5000900007000b01070033013700ec874700c5
:100c6000889fbe008a9fbe008c9fbe008e1f7800aa
:100c7000000678000104780018079000280590000d
:100c800098067800cdb79f00b80590003202be00ec
:100c90002203be000400be000601be004f18de00a5
:100ca0006011b8008000eb00d0b79f00e1b79f0053
:100cb000f2b79f0083bf9f00800478000900e00026
:100cc000060032006000b8006011b8000402500055
:100cd0008582580006035900878359000e00e00002
:100ce000020035000d10a100cdb79f000900e00003
:100cf00005003a004fb097000028a30002003a0018
:100d00000038a300020032008a00e9000100370029
:100d10008a007800f8815700a200200008007800bf
:100d2000860007000900e00003003a00cfb09700fa
:100d30000128a300080032000000e90000814500fe
:100d4000b1c2b3000900e00001003200d1c2b3001b
:100d500001497800050037000138a3000300320084
:100d60000000e90001c2b3008175780048019000dd
:100d70000201e90000015100808045004fb2970058
:100d80008a0178000c007800ae0107009c009000fa
:100d90000188a3000400320098009000810f5000e9
:100da00001003d00010078004f0778004f06be00ab
:100db0004f05be004f04be00cf00b100000006008a
:100dc0000200fa00889fbe008a9fbe0000057800de
:100dd000010478000200780018019000a805900036
:100de00098007800b1bf9f00b80490000200e000b6
:100df000020035000110a100b1bf9f00ea81570039
:100e0000820020008b0078003002be002003be006c
:100e100008007800490007003fb99700f000610022
:100e2000030032000000e90001c3b30081747800c0
:100e30003fb99700e8006100030032000000e900bc
:100e400001c2b30081747800480190000201e900fa
:100e500000015100808044003fba97008b01780068
:100e60000a007800770107009a0090000188a3002b
:100e70000400320098009000810f500001003d00f6
:100e8000010078004f05be004f04be000080fa004c
:100e900000000600ea874700889fbe008a9fbe00c8
:100ea0008e1f7800000478000300780072875700d6
:100eb00084e2260055c72600049fbe00c396220088
:100ec000030f78006c875700004feb00110590006e
:100ed000a1049000910578000200e00002003200b9
:100ee0000207780001003700728757000000e00019
:100ef00002003a000e00780033ff07000a00e0000d
:100f0000030035008a0f5000010036000a00780007
:100f10000b02780089017800000178008e007800cb
:100f200008007800470107004f0778004f05be0012
:100f30004f04be00af00b10000000600f487470078
:100f4000889fbe008a9fbe008c9fbe008e1f7800c7
:100f50000605be000404be0081bf9f0082b79f004b
:100f6000f3b79f00b0009000e1b79f001301780035
:100f700092b79f0090069000400690000c06e90092
:100f80000d00e00001003d001d002000efb19700c2
:100f90000c8041000048eb001e0020001f003700bd
:100fa0000c06e9000fb09700cf80de006109b900a0
:100fb000a0b79f00b1b79f00c2b79f00d3b79f00f3
:100fc0000203be000002be000800be000a01be000f
:100fd000ca04070000077800efb097000c804000bb
:100fe00003c3b300034847008d06e9000fb897001c
:100ff0000000e90080bf9f002fb29700bfb29700aa
:101000004fb39700dfb397000800be000a01be008f
:10101000b30407000205be000004be000c00e0009f
:101020000d003200e00f5400e08f5c00e00f5d0027
:10103000e08f5d00daff3a000d00e000d8ff3c00d1
:101040008fb897000100e000030034001fb1970043
:101050000218a300d2ff3a000e00e00002003a009e
:10106000ffb197001340a1000c0078004f077800f3
:101070004f06be004f05be004f04be004f01b10039
:10108000000006000200fa00889fbe008a9fbe0092
:1010900080047800010478000200780018019000b4
:1010a0002805900098007800b1bf9f00b805900017
:1010b0000200e000020035000110a100b1bf9f0056
:1010c000ea815700a20020008a0078003002be00aa
:1010d0002003be000800780098ff07004801900038
:1010e0000201e90000015100808045003fba9700ed
:1010f0008a01780009007800d2000700990090006a
:101100000188a3000400320098009000810f500075
:1011100001003d00010078004f05be004f04be00f5
:101120000080fa0000000600fa874700889fbe0092
:101130008a9fbe008c9fbe008e1f780080047800be
:1011400001047800820578001801900028059000bd
:1011500018077800b80090000200e0000200350097
:101160000e10a1000100370012002000700067007f
:10117000e0b79f00090032003b02be002b03be0017
:10118000e00f5200e08f5a00e00f5b00e08f5b0041
:10119000020032008a86e900010037008a067800e2
:1011a000e8026700f5b79f00010032008d06e900f4
:1011b0003b02be002b03be00e4af9f00f5af9f00d3
:1011c00086b79f0097b79f00480690000c06e9007d
:1011d0000c8040000048eb00efb297007fb2970010
:1011e0008903780081047800d8af9f00020478005a
:1011f0008bbf9f008a057800034578002a003700de
:101200000c06e9006fab97006f006300e90f500018
:1012100002003c000003b000010037007005b00080
:101220000a03fb001604b100f90f53000c003e0046
:10123000000378000650a0001606b100f90f530015
:1012400007003e00b4b79f00a5b79f00c7b79f0037
:1012500086020700cfb39700afb297003fb2970066
:1012600080747e000804e9008d06e9006fa89700ed
:10127000ffa897000fb197009fb19700460020008c
:101280008301d1000281d3008180d3000080d3008c
:101290000603e900faff3a00e0af9f00f1af9f00bc
:1012a00082b79f0093b79f00e10f56000f003600f2
:1012b0006fa89700ffa897000fb197009fb1970004
:1012c000e00f5000e08f5800e00f5900e08f590008
:1012d000cbff3a000800e000c9ff3c000d00e00031
:1012e000020034000e18a300c5ff3a008900780000
:1012f000f4b79f00870478005fac97008a417800bc
:101300000b0578008fbd97000500e000100032004b
:101310003b02be002b03be00e4af9f00f5af9f0071
:1013200086b79f0097b79f00e00f5200e08f5a00ea
:10133000e00f5b00e08f5b00050032000c06e90067
:1013400083707e000c06e90000c3b30080707e004d
:10135000ffb297000500e000030032000c06e90030
:1013600000c2b30080707e00480190000201e900d5
:101370000c0151008c8040000e0278008a01780038
:10138000090078002f000700990090000188a30051
:101390000400320098009000810f500001003d00d1
:1013a000010078004f0778004f06be004f05be00d1
:1013b0004f04be00af01b100000006000200fa00b9
:1013c000881f780000047800e2bf9f006481570006
:1013d00008007800ce010700980090000148a300a3
:1013e000010032000080eb004f0478000080fa001a
:1013f00000000600889fbe008a1f780080047800e5
:101400004900900002047800800f5400010036006b
:1014100000047800080178006a8544001a0078000a
:10142000b2fc07001a004400000d7800e884440074
:10143000990c14000048eb004f0578004f04be00e3
:1014400000000600f2874700889fbe008a9fbe000a
:101450008c9fbe008e1f7800800478000105780004
:1014600002047800830578006107620002003a00f8
:101470008b0f540008003900080178008a007800ba
:10148000090078002dfd07008b0f54000200390081
:10149000880578001e003700088655000c0178008a
:1014a000f00f56000100360002012000010220006a
:1014b0007e80570094fc07008c06780005003700fa
:1014c00002012000fe805700090078001bfd070084
:1014d000f0865600ef8f5600f9ff3e004461de00b3
:1014e00000ff2f000091b90002014600fe80570066
:1014f0000900780011fd07000e00e00004003a002a
:10150000080178008a007800090078000bfd0700c8
:101510000b0078004f0778004f06be004f05be0055
:101520004f04be002f01b1000000060000000500be
:101530000000050000000500000178000040eb00fd
:101540008080fb00818040004388200063c27800d7
:101550000404e00003003a005088200060c07800d6
:101560000000060092017800934f520004003a00f8
:101570005088200060c078000309e80001003700af
:101580000040e800ea4f5000edff36000000060082
:10159000f6874700889fbe008a9fbe008c9fbe00d2
:1015a0008e1f78008004780001047800830578009d
:1015b000040678000000eb00c0b79f008080eb00bd
:1015c000d1b79f00e0b79f00f2b79f00000820004e
:1015d00080bf9f0098007800010078000005eb00b4
:1015e000010037000a05e800304178000204e000fd
:1015f0000300320053c2b300834f5100f9ff3a0099
:101600000a00e000040032000a01780009007800b6
:10161000cafc0700180c45001807780050c2b30038
:101620009e4f100033013a000e07e8000e0c7800c0
:1016300010003700cfb097000100a0000b0037006a
:10164000cfb097000110a00008003700cfb097007e
:101650000120a00005003700cfb097000130a000a6
:1016600002003700cfb097000140a000c1b79f0033
:10167000000ce8001800780090407800b2c2b30077
:1016800082cf5000f1ff320007003c0002c2b300dd
:1016900082cf5000f0ff320032c2b30082cf500040
:1016a00007003a00efff3700d2c2b30082cf5000ec
:1016b000e0ff320002c3b30082cf5000e0ff3200ef
:1016c000a2c2b30082cf50000d003a00000ce80027
:1016d0001c80e900000e780010007800e0b79f0041
:1016e0000000e0000f003d00cfb097000100a20015
:1016f000c1b79f000000ea00e0b79f000900370073
:101700002d010700e0b79f0001003700000ce80042
:10171000180078009000fb000103b100e98f500031
:10172000faff36004fb097000008a3000200320015
:101730000010a100c0b79f0018007800e1c2b300fc
:1017400090cf100016003a008000eb00d1b79f0048
:101750000000e800000c7800a1c2b30090cf100098
:1017600006003a00000ce8001c80e900000e78003a
:1017700010007800d0b79f00090037000e01070065
:10178000d0b79f0001003700000ce8001800780077
:101790009000fb000103b100e98f5000faff360012
:1017a0000800780064ff0700804678001800780081
:1017b0001000fb002601070091062000810f500059
:1017c0003800320012003c0041062000810f50001a
:1017d000340032000a003c0011062000810f500046
:1017e0002000320031062000810f50009a003200a4
:1017f00051022000810f5000ae003a00a7003700d0
:1018000071062000810f5000aa003c0082003700c2
:1018100001072000810f50005c00320007003c00ef
:10182000e1062000810f500074003200f106200014
:10183000810f50009f003a00390037005107200007
:10184000810f50002700320081072000810f5000d7
:101850004200320031072000810f500095003a000d
:10186000850037008d80fb000c01780000fe2f0002
:101870000f004000040107000000e0009c0032005f
:1018800018007800000ce8009041780002fe2f005c
:101890000f014100f88057000900780024ff07007d
:1018a0000e0037008d80fb008c01780012002000b4
:1018b00000fe2f000f004000120107000000e000b2
:1018c0008b003200180ce80002fe2f000f014100cf
:1018d000f880570009007800e0fc0700000545008b
:1018e000840037008d80fb008c0178000001eb0044
:1018f00000fe2f000f004000020107000000e00082
:101900007b003200180ce80002fe2f000f0141009e
:10191000f880570009007800dafd0700efff370074
:101920008d80fb008c0178000001eb0000fe2f0091
:101930000f004000f30007000000e0006c003200e0
:10194000180ce80002fe2f000f014100f88057003c
:10195000090078001afd0700e0ff37008d80fb00ca
:101960008c0178000001eb0000fe2f000f0040000a
:10197000e40007000000e0005d003200180078007d
:10198000000ce80090417800160037008c017800c8
:101990000001eb00010f200000fe2f000f004000af
:1019a000d80007000000e00051003200180ce800e9
:1019b0000fb097009fb097002fb19700bfb197006d
:1019c000e00f5000e08f5800e00f5900e08f590001
:1019d00003003a008001eb00e2872000400037005e
:1019e00083c7b30002fe2f000f014100f8805700ab
:1019f00009007800ccfd0700b8ff37000b01450057
:101a00008d80fb008c01780000fe2f000f0040004d
:101a100015010700360037008d80fb000c017800af
:101a200000fe2f000f004000970007000000e000bc
:101a30002f00320018007800000ce8009041780078
:101a400002fe2f000f014100f880570009007800c6
:101a5000b7fe0700a1ff370000c8b30080cf5600d3
:101a600023003a00180ce8001c80e900000e780002
:101a7000104078000d00370000c8b30080cf56003a
:101a80001b003a00180ce8001c80e900000e7800ea
:101a90008001eb00100178001100370001c8b3008d
:101aa00081cf560012003a00180ce800e0df9f00da
:101ab0000800370050c2b300e0df9f000e0c780032
:101ac0000000eb00c0b79f00e0b79f008080eb00f4
:101ad000d1b79f0013002000e2fd2f000f0141004d
:101ae000f880570009007800eafc07007bff370008
:101af000180ce8000a0078004f0778004f06be0077
:101b00004f05be004f04be006f01b100000006008b
:101b10008200fa00889fbe008a1f780000057800c6
:101b200082047800c13f9f000004eb0010003700e2
:101b30000902780088017800a2f72f000f01410008
:101b400081f72f008f8040000a00780090fe070088
:101b500008004000880f500004003d00b004200041
:101b6000a04588000084eb000400370000047800e2
:101b70004f3897001004e000edff3a0008007800ad
:101b80004f0578004f04be000080fa0000000600f8
:101b9000800078001000200002022000828f500098
:101ba00004003200e9805000e48f5000010036004c
:101bb0000000eb0000000600889fbe008a1f78002e
:101bc000800478000904780088047800394578009a
:101bd0000a00fb00eeff07000000e000f9ff3a00fa
:101be000b0c2b300804f550005003200d0c2b30030
:101bf0008000eb00804f550005003a0002003700de
:101c00008000eb0001003700110020000804e8000c
:101c10000000eb00030037006a02b9000200520026
:101c20000003b0003801fb0003fd2f00828141005a
:101c3000e98f5100f8ff36000100e00001003a0092
:101c40000000ea004f0578004f04be0000000600c7
:101c5000f1fb2f0080804000f98f500001003e0012
:101c60000050a00000000600f9ff3700f1f92f0036
:101c700080804000f98f500001003e00f005b20066
:101c800000000600f9ff3700881f78000004780084
:101c900000082000808f5000170035001008200039
:101ca000808f50000b00340030082000808f5000df
:101cb00011003a0092007800688050000009780016
:101cc0003002be002003be00049cbe000694be008d
:101cd0000700370092027800648052000009780003
:101ce0001000be009e000700009cbe000294be00d3
:101cf00010002000010037000000eb004f047800c6
:101d00000000060084082000848f50001d0032006f
:101d10000d003c0014082000848f50002700320082
:101d200002003c00040820000400370024082000c2
:101d3000848f50002a00320044082000848f500015
:101d400048003a003b003700040a2000848f50000e
:101d50002c00320004003c0004092000848f500055
:101d600040003a002d003700020c2000828f500006
:101d70001e003200020f2000828f500039003a000e
:101d8000300037009380e9000200e00005003200d7
:101d9000810978001102fb00cfa2de00612bb9009f
:101da0002d00370081097800114278000482fb0081
:101db0008002eb006033b800270037001302780080
:101dc000e40052000200e0000a00320081097800bd
:101dd0001102be004fabde00860378001e00370004
:101de00093027800e88052000e00370093027800da
:101df000e4805200810978001102be006033b8000f
:101e0000150037009380e9008109780011027800fd
:101e1000cfa2de00612bb9000f003700130378005a
:101e2000e8005300810978003102be002103be00a2
:101e3000090037009380e9000200e0000200320050
:101e4000f1ff37009380e9008109780011027800e2
:101e50008002eb006033b8000498be000690be001c
:101e6000100005000000050044082000848f500089
:101e7000270032000a003c0014082000848f500024
:101e80001c00320024082000848f500026003200fd
:101e900004082000848f50002c003a001c003700fa
:101ea00004092000848f50001f00320004003c0011
:101eb00084082000848f500024003a000700370077
:101ec000040a2000848f500011003200040c20000e
:101ed000848f50001d003a00060037009380e9000f
:101ee0008109780091007800010878008248780024
:101ef000150037009380e90081097800910078008f
:101f000001087800cf91de008288be000e00370005
:101f10009380e90081097800910078000108780039
:101f200082087800080037009380e9008109780072
:101f300091007800010878006112b900612bb900a6
:101f40008498be008690be001000050000000500c9
:101f5000000006005ffa0700fdff0700fcff3700e6
:101f6000810378001d0007000001be006000b8007a
:101f70000478a30013003a006220e10015003e003f
:101f80000d0039008301d1000281d3008180d3008c
:101f90008301d1000281d3008180d3008301d1006d
:101fa0000281d3008180d3000538b000c42add004f
:101fb000f300b2008381720007f0a70003f0a000d5
:101fc0000000060083ff2700020020006110b90016
:101fd000f9ff370003ff2700f7ff3700c70ade00cd
:101fe000f107b200f50fb20008003200e1cf420065
:101ff000020032000170a00024000500810f700073
:10200000010032000408050044000500810f700043
:1020100002003a00140005008502e90000004000bb
:1020200081c04800fcff3b000170a00024000500b7
:10203000020ab900001bb9000200b800810042008a
:10204000810043000000060000c0da000000060026
:1020500000c0da0000000600889fbe008a9fbe0014
:1020600030044200b0844a0030054b0090854b009c
:102070006000b1000898be000a90be000440e10074
:1020800005c8e10006d0e10007d8e10002003100f8
:10209000680040001008e8004f05be004f04be0075
:1020a00000000600889fbe008a9fbe003004be006c
:1020b0002005be000418540005985c0006185d0059
:1020c00007985d00110020000440e10005c8e10010
:1020d00006d0e10007d8e100010039008000eb00e4
:1020e000108810004f05be004f04be00000006001f
:1020f000f4874700889fbe008a9fbe008c9fbe0069
:102100008e1f7800d0b79f00e1b79f00f2b79f0005
:1021100083bf9f000605be000404be00cfae97003b
:102120000000eb00c0b79f00b0b79f00a0b79f00b2
:1021300090b79f0080b79f00000678004fb09700cf
:10214000000140000000e00006003d003c000700e8
:102150000f074700450007000f004000beff0700c3
:1021600005003700360007000f0747003f00070053
:102170000f004000cbff07004fb797000e00e000b4
:102180000c0035005fb29700efb297007fb3970065
:102190008fbb970010002000010020006011b800e4
:1021a0000002720081827200020373008383730055
:1021b0001c0007000c06e80001042000810f5600f7
:1021c000deff3a000e00e00005003d000802be0000
:1021d0000a03be0000fe2f000f0040009eff070014
:1021e0000d00e00005003a000fb297009fb2970083
:1021f0002fb39700bfb397000a0007005fb09700a6
:10220000efb097007fb197008fb997004f07780024
:102210004f06be004f05be004f04be004f01b10087
:1022200000000600010007000000060094b79f00b0
:10223000a5b79f00b6b79f00c7b79f000000060074
:102240009fb097004f08de0002017000a2b79f0008
:102250000fb097004f01de008180400081007100c7
:1022600091b79f000efe2f0000000600de007800f0
:102270004f09de00000040000000710080b79f00a1
:102280006fa897004f01de0081804000010f7100b0
:102290000e0007004f3ade0000004000040070000e
:1022a000e0af9f00090007000402420085824a0057
:1022b00006034b0087834b00dcff07000802be00cb
:1022c0000a03be0000fe2f00000006001fb29700a8
:1022d000afb297003fb39700cfb39700000006005e
:1022e000881f780018002000881f780080ff0700f2
:1022f0008f87e9004f04780000000600801feb0084
:102300007bff07008f87e90000000600889fbe0062
:102310008a9fbe00e00f5000e08f5800e00f590088
:10232000e08f59000c003d006044b8006055b800d3
:102330000000540081805c0002015d0083815d002b
:10234000180020001500070008003d0018000700d5
:102350000004eb00050037000004eb000f0007004d
:1023600002003d001200070018002000dcff0700fb
:102370000800e000060032006022b8006033b800b8
:102380000000520081805a0002015b0083815b00e3
:102390004f05be004f04be0000000600e00f5200d3
:1023a000e08f5a00e00f5b00e08f5b00000006004a
:1023b0006044b8006055b8000402540085825c0097
:1023c00006035d0087835d0000000600889fbe0055
:1023d0008a9fbe008c1f7800e00f5000e08f5800ed
:1023e000e00f5900e08f59000d003d006044b80037
:1023f0006055b8000000540081805c0002015d005f
:1024000083815d001c0020000820e10009a8e10094
:102410000ab0e1000bb8e1000d003d0008003700f4
:102420000006eb00e00f5200e08f5a00e00f5b0067
:10243000e08f5b0006003d006044b8006055b800c6
:102440000402540085825c0006035d0087835d0002
:10245000aaff07000c00e000060032006022b8006e
:102460006033b8000000520081805a0002015b0016
:1024700083815b004f0678004f05be004f04be000d
:042480000000060052
:020000040000fa
:1024840055410000525400002074000065730000a0
:10249400740d00000a0000004d650000646900002e
:1024a400612000007072000065730000656e00001a
:1024b400740a0000004d00006564000069610000ba
:1024c400206e00006f740000207000007265000030
:1024d400736500006e7400000a000000303a0000ca
:1024e400004d00006f7500006e7400007320000042
:1024f4006f6b00000a000000507200006f62000061
:102504006c6500006d20000061740000206d000007
:102514006f7500006e740000696e0000670a0000a9
:102524000074000065730000742e000074780000cd
:1025340074000000466900006c6500002063000020
:10254400726500006174000065640000206f000083
:102554006b0a0000004300006f7500006c6400000b
:102564006e270000742000006372000065610000a3
:102574007465000020740000686500002066000097
:10258400696c0000650a00000044000061740000ea
:102594006120000077720000697400007465000017
:1025a4006e20000073750000636300006573000013
:1025b40073660000756c00006c7900000d0a000061
:1025c400004300006f7500006c6400006e2700007b
:1025d4007420000077720000697400006520000018
:1025e40064610000746100000d0a0000004e0000e8
:1025f400756d000062650000722000006f660000c7
:1026040020620000797400006573000020770000e8
:102614007269000074740000656e000020250000db
:10262400640a0000004e0000756d00006265000041
:10263400722000006f6600002062000079740000c0
:1026440065730000207200006561000064200000d2
:10265400256400000a000000466900006c65000063
:10266400206300006f6e0000746500006e7400004b
:1026740020690000733a000020250000730a00005e
:10268400004300006f7500006c640000206e0000c1
:102694006f74000020720000656100006420000077
:1026a400667200006f6d0000207400006865000011
:1026b40020660000696c0000650d00000a0000003f
:1026c400436f0000756c0000642000006e6f000012
:1026d400742000006f700000656e0000207400001c
:1026e4006865000020660000696c0000650d00004c
:1026f4000a000000436c00006f73000065200000b6
:102704007468000065200000666900006c650000c4
:10271400206100006e640000207500006e6d0000f2
:102724006f7500006e74000020740000686500007e
:102734002064000072690000766500000a00000051
:1027440000000000950000000000000000000000f0
:1027540001000000f900000000000000000000007b
:1027640008000000870000000400000000000000d2
:1027740009000000af00000000000000010000009c
:102784000a0000001b00000000000000010000001f
:102794000c000000c3000000010000000000000065
:1027a4000d000000af000000020000000000000067
:1027b40010000000ff000000000000000000000006
:1027c40011000000ff0000000000000001000000f4
:1027d40012000000ff0000000000000001000000e3
:1027e40018000000ff0000000000000001000000cd
:1027f40019000000ff0000000000000001000000bc
:1028040020000000ff0000000000000000000000a5
:1028140021000000ff000000000000000000000094
:1028240026000000df00000001000000000000009e
:1028340037000000730000000000000000000000ea
:102844003a00000025000000040000000000000021
:102854003b00000025000000000000000000000014
:1028640029000000ff000000040000000000000038
:1028740017000000ff00000000000000000000003e
:10288400809a0000454100008e4100008f800000c6
:102894004545000045490000494900008e8f00006d
:1028a40090920000924f0000994f0000555500008f
:1028b400599900009a9b00009c9d00009e9f000077
:1028c400414900004f550000a5a50000a6a700003f
:1028d400a8a90000aaab0000acad0000aeaf000098
:1028e400b0b10000b2b30000b4b50000b6b7000048
:1028f400b8b90000babb0000bcbd0000bebf0000f8
:10290400c0c10000c2c30000c4c50000c6c70000a7
:10291400c8c90000cacb0000cccd0000cecf000057
:10292400d0d10000d2d30000d4d50000d6d7000007
:10293400d8d90000dadb0000dcdd0000dedf0000b7
:10294400e0e10000e2e30000e4e50000e6e7000067
:10295400e8e90000eaeb0000eced0000eeef000017
:10296400f0f10000f2f30000f4f50000f6f70000c7
:10297400f8f90000fafb0000fcfd0000feff000077
:10298400222a00002b2c00003a3b00003c3d0000b2
:102994003e3f00005b5d00007c7f000000460000bd
:1029a400415400000046000041540000333200004e
:1029b4000000000048540000ee580000a454000039
:1029c400be540000fa540000325500006c5500005b
:1029d400785500009e5500008255000048540000c0
:1029e400f8580000a4540000be540000fa5400003b
:1029f400325500006c550000785500009e550000cb
:102a0400825500006000000000000000000000008b
:102a1400600000000400000000000000200100002d
:082a24000f000000000000009b
:020000040000fa
:102a2c000400fa008e80e800800878000e80e80030
:102a3c00100078000000e800104078000080fb00d7
:102a4c00000f78001e007800c800dd000e80e80042
:102a5c0010007800104078000080fb00008f7000a0
:102a6c001e0078000080fa00000006000600fa0044
:102a7c00e4004700800878006400470010007800ec
:102a8c0063004000104078000080fb008000eb00e9
:102a9c00008fbe001e00be004809dd00c801de002c
:102aac00830171004801dd006400470010007800cc
:102abc000080e800104078000080fb008000eb00f4
:102acc00001f7100019771001e00be004809dd0057
:102adc00c801de00830171004801dd00640047007d
:102aec00100078000000e800104078000080fb0027
:102afc008000eb00001f7100019771001e00be00ea
:102b0c004809dd00c801de00830171004801dd00c9
:102b1c006400470010007800104078000080fb0033
:102b2c008000eb00001f7100019771001e00be00b9
:102b3c000080fa00000006000400fa00000f780084
:102b4c000e80e800010878000e80e8001000780084
:102b5c00004078009e007800804878001e0fe80046
:102b6c000e80e80010007800c800de000e80e8003f
:102b7c00010878000e80e800100078000040780012
:102b8c009e007800804878001e0fe8000080fa0054
:102b9c00000006000600fa00000f78000e80e80026
:102bac000288be000e80e80010007800004078001b
:102bbc009e007800804878001e0fe8000e80e80028
:102bcc001000be004809dd004800de000000710066
:102bdc00c808de000e81e8000089be000e80e80007
:102bec0010007800004078009e0078008048780043
:102bfc001e0fe8000e80e8001000be004809dd0042
:102c0c004800de0000007100c808de000e81e800fc
:102c1c000089be000e80e8001000780000407800ab
:102c2c009e007800804878001e0fe8000e80e800b7
:102c3c001000be004809dd004800de0000007100f5
:102c4c00c808de000e81e8000089be000e80e80096
:102c5c0010007800004078009e00780080487800d2
:102c6c001e0fe8000080fa00000006000a00fa00bf
:102c7c00e4014700800978006600470001087800ed
:102c8c00680047000208780064004700100f7800c5
:102c9c000e80e800e6004700110878006800470045
:102cac00100078000000e000140032000e80e800f4
:102cbc0010007800104078009e0078008048780062
:102ccc001e0fe8000e80e800100078008000e8007d
:102cdc000e80e800010878006800470010007800ba
:102cec008000e90068004700010878006800470090
:102cfc00100078000000e000ecff3a000080fa00c1
:102d0c00000006000800fa008e81e80080097800b7
:102d1c00640047000108780066004700020878004c
:102d2c000e80e800100f7800640047001000780057
:102d3c00004078009e007800804878001e0fe80064
:102d4c0066004700100078008000e900660047002c
:102d5c000108780066004700100078000000e000d1
:102d6c00f1ff3a000080fa00000006000c00fa00a7
:102d7c00e6014700800978006800470001087800e8
:102d8c006a0047000208780066004700100f7800c0
:102d9c000e80e800e8004700110878008000eb0086
:102dac0064004700010878001e007800104078008d
:102dbc008080fb000e80e800100078001040780046
:102dcc000080fb0080805000640047000108780000
:102ddc001e0fe8000e80e800100078008000e8006c
:102dec000e80e800010878006a00470010007800a7
:102dfc008000e9006a004700010878006a0047007b
:102e0c00100078000000e00004003200640047006d
:102e1c00100078000000e000e3ff3200640047007f
:102e2c00100078000080fa00000006000400fa0090
:102e3c00000f78000e80e8000108780001003700d0
:102e4c001e0fe8001e007800104078000004e0001f
:102e5c00070032001e007800104078000000fb00d4
:102e6c008e80e80091007800810f5000f4ff3a004a
:102e7c001e007800104078000000fb000080fa0073
:102e8c00000006000200fa00004f78001e40780097
:102e9c000004e000020032000000eb0001003700eb
:102eac000000eb000080fa00000006000200fa00af
:102ebc00004f78001e4078000004e0000200320051
:102ecc000000eb00010037000000eb000080fa006e
:102edc00000006000400fa008e80e80080087800ec
:102eec000000eb00000f78000e80e8001000780066
:102efc0063004000104078000004e00049003200fc
:102f0c000e80e800100078000003b0001000be0036
:102f1c000e81e800120178004603200002034300f2
:102f2c000e81e800120178000201e800924278005c
:102f3c00140020000001be008600780005407800d7
:102f4c005b1f07000000e00034003a000e80e80030
:102f5c00100078008040eb006300400001487800ce
:102f6c000e80e800100078000003b0001001be00d5
:102f7c000e80e800100078004002b0001000be0087
:102f8c0000015100818159000e80e800100078008a
:102f9c007c0040001000be00800f5100818f590052
:102fac00200031000e80e800100078000080e8005e
:102fbc0010407800e24f50001a003a000e80e800f2
:102fcc00100078000003b0001001be000e80e80075
:102fdc00100078007c0040001000be000200400091
:102fec00838048000e81e80012017800460320001f
:102ffc00020343000e81e800120178000201e80090
:10300c0092427800140020000001be008600780077
:10301c0005407800261f0700020037001000200032
:10302c00000f78001e0078000080fa0000000600f7
:10303c000800fa008e80e8008008780064004700e1
:10304c000288be000000eb00000f78000e80e80044
:10305c00100078000003b0001001be0064004700af
:10306c001000be00800f5100818f590021003200ea
:10307c000e80e8001000780096ff0700000f780023
:10308c001e0078000000e0001a003a000e80e800f4
:10309c001000780041032000808040000e80e80082
:1030ac00100078000000e8001040780014002000a8
:1030bc00640147001201be00da1e07000000e000a8
:1030cc00060032000080eb008080eb0064014700ba
:1030dc000089be0010002000000f78000e80e80070
:1030ec00100078000003b000e400470031187800ad
:1030fc00211078001e0078000080fa000000060005
:10310c000400fa008e80e800800878000e80e80049
:10311c00100078006fff0700000f78001e00780089
:10312c000000e00063003a000e80e8001000780018
:10313c0010407800e34f500053003a000e80e80036
:10314c00100078006400400010407800e14f5000ff
:10315c004d003a000e80e800100078004003b000eb
:10316c00022020008000eb00e6fe07000e80e80045
:10317c00100078002023b00051a52a006efe070035
:10318c000e80e800100078004003b00022252500d6
:10319c00131624007ffe07000e80e8001000780054
:1031ac008021b000222727001314260079fe070087
:1031bc000e80e80010007800700040001000be0087
:1031cc000e81e80012017800c421200002024200a6
:1031dc000001be00040078006efe07000e80e800bf
:1031ec00100078006c0040001000be000e81e8005a
:1031fc001201780004222000020242000001be00ed
:10320c000400780063fe07000e80e80010007800d0
:10321c000002b0001000be0061004000e0804800d9
:10322c000e81e800120178000203b0000089be0094
:10323c000e80e800100078000003b0001000be0003
:10324c000e81e800120178004603200002034300bf
:10325c000e81e800120178000201e8009242780029
:10326c00140020000001be008600780005407800a4
:10327c008f1e07000e80e800100078008040eb00e5
:10328c0064004000014878000e80e80010007800cf
:10329c000000e800104078000001eb008040eb00db
:1032ac00a61e07000000e000020032001000200003
:1032bc00000f78001e0078000080fa000000060065
:1032cc000600fa00000f78000e80e8000288be00ad
:1032dc000e80e8001000be0062005000e080580034
:1032ec000e81e8000089be001e00780078004000c6
:1032fc001000be0062015000e08158000e80e80012
:10330c001000be00800f5100818f590002003e005a
:10331c006000b800170037001e007800c002b00033
:10332c001002be001e0078006a00400010007800f9
:10333c008000eb000e81e800120178000191b900c9
:10334c0002017800e401470093017800009bb9006a
:10335c0086017800030141008e81e800930178001a
:10336c000018b80001014100820078000400400000
:10337c00858048000080fa00000006001000fa006a
:10338c00889fbe008a9fbe00ea0047008008780034
:10339c006c0047000288be006a004700900078006d
:1033ac0064004700110878006c0047001001be0053
:1033bc001000200001002000800f5100818f590067
:1033cc0009003600640047001000780078004000c7
:1033dc001001be006c0047001000be00800f5100b1
:1033ec00818f590004003e001000200001002000d5
:1033fc00008fbe00ca0037000080eb008080eb001d
:10340c00008fbe0064004700100078001040780068
:10341c000080fb00e20f50006b003200e30f500005
:10342c008a003200e10f5000b2003a0066004700fb
:10343c00ec00470011087800660047001000780087
:10344c000000d100e6004700910078008080400029
:10345c0066004700010878006400470010007800ff
:10346c004002b0001001be0066004700100078005a
:10347c004900de008000eb00020040008380480021
:10348c000001be006400470010007800e8fe070051
:10349c000000e0009b003a006600470090007800b6
:1034ac00f01f200000806000e400470091007800cd
:1034bc004003b00000804000104078008080fb008a
:1034cc00680047000108780066004700100078008b
:1034dc008000e8006600470001087800640047009f
:1034ec00100078004002b0001001be0066004700da
:1034fc00100078004900de008000eb000200400064
:10350c00838048000001be00640047001000780072
:10351c00c7fe07000000e0007c003a006600470090
:10352c0090007800f01f200000806000e40047004d
:10353c00910078004003b0000080400010407800fb
:10354c000080fb004800dd00e80047009100780097
:10355c008100700068004700010878006c0047008b
:10356c001000780061006000004078000004e0006a
:10357c000500320068004700100078004400de00af
:10358c008000eb000e003700680047001000780048
:10359c006101b800f0ff2000010020000202780059
:1035ac00030178008001780081007800030062003c
:1035bc008100610081057800000578000a00be00da
:1035cc00008fbe00560037006400470010007800e2
:1035dc004002b0001001be006c0047001000be009d
:1035ec00480add004800de0000007200c808de005a
:1035fc0002004000838048000001be0064004700c8
:10360c00100078008afe07000000e00041003a003c
:10361c0064004700100078004103200080804000c7
:10362c006c0047001000780000004000000178009a
:10363c00f01f20000000610000804000f8fc070033
:10364c008000eb00008fbe0035003700640047009f
:10365c00100078004002b0001001be006c00470062
:10366c001000be00490add004700de0000007200b9
:10367c00c708de0002004000838048000001be0045
:10368c00640047001000780069fe07000000e000ad
:10369c0022003a006400470010007800410320002b
:1036ac00808040006c004700100078004201dd0073
:1036bc00f01f20000000610000804000ebfc0700c0
:1036cc000001be00f0ff2f00f1ff20000202780085
:1036dc00030178008001780081007800030062000b
:1036ec00810061008104780000047800088fbe001e
:1036fc000b0037001000200001002000008fbe00de
:10370c000700370000000000050037000000000033
:10371c00030037000000000001003700000000002b
:10372c001e00be004f05be004f04be000080fa0014
:10373c00000006001000fa00889fbe008a9fbe00a1
:10374c00e600470080087800680047000288be0049
:10375c006c0047000488be0020002000000f780099
:10376c00680047001001be0010002000010020007e
:10377c00800f5100818f59001d01360066004700f3
:10378c0010007800780040001001be00680047006f
:10379c001000be00800f5100818f590014013600bb
:1037ac006600470010007800104078000080fb0095
:1037bc00e20f500091003200e30f5000b7003200ce
:1037cc00e10f50000a013a000e80e800e8004700c3
:1037dc00110878000e80e800100078000000d1007d
:1037ec008e80e80091007800808040000e80e80018
:1037fc000108780066004700100078004002b00015
:10380c001001be000e80e800100078004900de00b8
:10381c008000eb0002004000838048000001be00e5
:10382c00660047001000780001fe0700000f7800ca
:10383c001e0078000000e000e6003a006600470039
:10384c001000780041032000808040000e80e800ca
:10385c0010017800f01f2000000061008080400003
:10386c0064004700010878000e80e8001000780022
:10387c008000e8000e80e80001087800680047002e
:10388c001000780061006000004078000004e00047
:10389c000c003200640047001000780010407800e3
:1038ac00ef4060006c00470010007800004078008a
:1038bc000080fb004400dd000040780000c0700078
:1038cc00030037006c0047001000780000407800bf
:1038dc00e4004700910078008048780066004700bb
:1038ec001000780011c0b30063004000014878005c
:1038fc0066004700100078004002b0001001be00c6
:10390c000e80e800100078004900de008000eb001b
:10391c0002004000838048000001be0066004700a2
:10392c0010007800c2fd0700000f78001e00780020
:10393c000000e000a9003a00660047001000780083
:10394c0041032000808040000e80e80010017800c8
:10395c00f01f2000000061008080400064004700e0
:10396c0001087800680047001000780061006000d2
:10397c00004078000004e000080032006c004700b2
:10398c001000be004c09dd004400de000000710098
:10399c00c408de00004078000f00370064004700c8
:1039ac0010007800104078008040780000cfb30001
:1039bc0000c160006c0047001000be00c809dd00ab
:1039cc004800de0000807100c808de00004078006e
:1039dc006f40600000407100e400470091007800e7
:1039ec0080487800660047001000780011c0b300d2
:1039fc0063004000014878007d00370066004700f6
:103a0c00100078004002b0001001be0068004700b2
:103a1c001000be00480add004800de000000720005
:103a2c00c808de0002004000838048000001be0090
:103a3c0066004700100078007dfd0700000f78003d
:103a4c001e0078000000e00066003a006c004700a1
:103a5c0090007800660047001000780042032000b8
:103a6c000001410068004700100078000000400091
:103a7c0080017800f01f20000080610000004100f0
:103a8c002dfc0700660047001000780011c0b30041
:103a9c00630040000148780055003700660047007d
:103aac00100078004002b0001001be006800470012
:103abc001000be00490add004700de000000720065
:103acc00c708de0002004000838048000001be00f1
:103adc00660047001000780055fd0700000f7800c5
:103aec001e0078000000e00040003a006c00470027
:103afc001001be00f0ff2f00f1ff20000202780041
:103b0c0003017800800178008100780003006200d6
:103b1c00810061008105780000057800660047008f
:103b2c0010007800410320008080400068004700ae
:103b3c00100078004201dd00f01f20000000610041
:103b4c0000804000c9fb07000001be0000002000ff
:103b5c0001002f0002027800030178008001780038
:103b6c00810078000300620081006100810478000c
:103b7c00000478000800be0000007500818075000c
:103b8c006c0147000089be006600470010007800f9
:103b9c00410320008080400068004700100078003e
:103bac004201dd00f01f2000000061000080400099
:103bbc00ec0047001101be00f6fb07006600470051
:103bcc001000780011c0b300630040000148780079
:103bdc00070037000000000005003700000000005f
:103bec000300370000000000010037000000000057
:103bfc001e0078004f05be004f04be000080fa0086
:103c0c00000006001200fa00e80047008008780067
:103c1c006a0047000288be006e0047000488be00a0
:103c2c000000eb00000f780068004700900078005f
:103c3c000e80e800110878006a0047001001be00f1
:103c4c001000200001002000800f5100818f5900ce
:103c5c00090036000e80e800100078007800400063
:103c6c001001be006a0047001000be00800f51001a
:103c7c00818f590002003e00200020006d003700ab
:103c8c006e0047001000be00e00f5000e08f58009f
:103c9c000d0032000082eb008082eb006e004700ca
:103cac001001be000e80e80010007800a1fe070095
:103cbc00000f78001e0078000000e00002003200c7
:103ccc001e0078005b0037006a0047001001be0040
:103cdc006800470010007800a8fd07006401470049
:103cec000089be00640047001000be00e00f5000c9
:103cfc00e08f58004d003200640047001001be00f8
:103d0c001000200001002000800f5100818f59000d
:103d1c0002003a00200020004600370064004700f3
:103d2c001001be000080eb008080eb00800f510082
:103d3c00818f590002003a00100020003d0037002e
:103d4c006022b8006a0047001001be000e80e80037
:103d5c001000780077fe0700000f78001e00780036
:103d6c000000e000020032001e0078003100370035
:103d7c000e80e80010007800700040001001be00ba
:103d8c000e80e80010007800780040001000be00a3
:103d9c0062005000e0805800800f5100818f590064
:103dac00140031000e80e800100078007000400014
:103dbc001000be0061004000e08048000e81e80069
:103dcc0012017800700141000089be000e80e800ed
:103ddc0010007800640040001040780080407800ab
:103dec000104a0000e80e800100078006400400080
:103dfc00014878006a004700e40047003118780059
:103e0c00211078000e80e800100078007800400047
:103e1c001001be006a0047001000be00800f510068
:103e2c00818f5900a8ff3e00010037000000000000
:103e3c000000eb000080fa00000006001600fa00fb
:103e4c00f000470080087800720047000288be002e
:103e5c0070004700900078006a0047001108780055
:103e6c00720047001000be00e00f5000e08f5800b9
:103e7c0019003a006a00470090007800640047007f
:103e8c00ec80400031187800211078006400470065
:103e9c001000be00e00f5000e08f58000900320007
:103eac006a00470010007800780040001001be0046
:103ebc00640047001000be00800f5100818f590034
:103ecc0030003e001000200001002000640147007b
:103edc000089be002b003700720047001001be00a5
:103eec00700047001000780024fd07006c014700ab
:103efc000089be006c0047001001be0010002000bd
:103f0c0001002000800f5100818f590003003e00fa
:103f1c001000200001002000090137006c00470050
:103f2c001001be000080eb008080eb00800f510080
:103f3c00818f590003003a006c0047001000be004e
:103f4c00ff0037006a00470010007800780040003e
:103f5c001001be006c0047001000be00800f510025
:103f6c00818f5900030036006c0047001000be0022
:103f7c00f300370064004700f20047003118780066
:103f8c00211078006a004700100078007000400093
:103f9c001000be00e00f5000e08f580002003a0005
:103fac006000b800e60037006000b800008fbe006b
:103fbc00640047001001be00720047001000be00f4
:103fcc00800f5100818f590048003a00640047006f
:103fdc001000be001200200003002000021f400051
:103fec00039748006a0047001000780078004000f2
:103ffc001000be00be0f5000ae8f580003003e00f4
:10400c002000200001002000008fbe001e01be0019
:10401c007000470010007800d8fc07006c014700c6
:10402c000089be006c0047001001be00100020008b
:10403c0001002000800f5100818f590007003200d1
:10404c006c0047001001be000080eb008080eb008c
:10405c00800f5100818f590003003a006c0047001b
:10406c001000be00b60037006c0047001000be0008
:10407c00e00f5000e08f58001c0032006a0047002f
:10408c00900078006c004700ec80400031187800fc
:10409c00211078006c0047001001be0010002000b9
:1040ac0001002000800f5100818f59000d00360057
:1040bc006a00470010007800780040001001be0034
:1040cc006c0047001000be00800f5100818f59001a
:1040dc000400360064004700ec00470031187800fb
:1040ec00211078006000b800008fbe001e00be00da
:1040fc00e00f5000e08f580040003a006400470089
:10410c00301f7800201778000100370000000000f5
:10411c0012002000030020001e0f41005e97490092
:10412c006a00470010007800780040001000be00c4
:10413c00be0f5000ae8f58000b003e002000200038
:10414c0001002000008fbe00640047001000be007c
:10415c001e01be00800f5100818f590002003600f5
:10416c006000b800760037001e01be0070004700ea
:10417c001000780081fc07006c0147000089be002c
:10418c006c0047001000be00e00f5000e08f58009c
:10419c00190032006c0047001001be001000200016
:1041ac0001002000800f5100818f59000700320060
:1041bc006c0047001001be000080eb008080eb001b
:1041cc00800f5100818f590003003a006c004700aa
:1041dc001000be005a003700640047001000be00fb
:1041ec001e01be00800f5100818f5900c7ff3a009d
:1041fc006000b80052003700000000000082eb00a5
:10420c008082eb001e01be006a004700100078009f
:10421c0048fd07008000780068004700010878001e
:10422c0068004700100078000000e0000e003a0023
:10423c00720047001000be00e00f5000e08f5800e5
:10424c00090032001e02be00720047001001be00c1
:10425c006a0047001000780036fd070080007800e7
:10426c0068004700010878006800470010007800db
:10427c000000e00027003a006a00470010007800b8
:10428c006c0040003e1878002e1078006a00470041
:10429c0010007800700040001001be006a0047005a
:1042ac0010007800780040001000be006200500042
:1042bc00e0805800800f5100818f59000a003e00a9
:1042cc006a00470010007800700040001000be002b
:1042dc0061005000e08058006a014700120178002c
:1042ec00700141000089be006a0047001000780090
:1042fc006400400010407800804078000104a00069
:10430c006a00470010007800640040000148780003
:10431c000a0037006800470010007800e10f5000d9
:10432c0003003a000080eb008080eb0002003700b5
:10433c001000200001002000008fbe001e00be00f7
:10434c000080fa00000006001000fa00ea004700a6
:10435c00800878006c0047000288be006a004700a5
:10436c0010007800dbfa07000000e00002003200c9
:10437c0010002000440037006c0047001001be0004
:10438c006a00470010007800cdfb07000e81e800a2
:10439c000089be006a004700100078000003b000de
:1043ac008e80e80031187800211078006a004700f0
:1043bc00100078004003b000022020008000eb00c9
:1043cc0050fa07006a0047001000780041032000f3
:1043dc008080400066004700010878001100200032
:1043ec0068004700010878000000eb00000f78001f
:1043fc000300370068004700100078001e0f4000d3
:10440c006a004700100078006a0040001000780035
:10441c009e0f5000130036001e0078006101b8009a
:10442c000e80e8001000be000200400083804800af
:10443c006a014700120178000201e80092427800fc
:10444c0068014700120278000001be0066004700b8
:10445c009000780005407800151a07000000e00075
:10446c00e4ff32006a004700100078006a00400048
:10447c00100078001e00680000f0a7000000ea00a1
:10448c000000ea004f00de000080fa000000060089
:10449c001000fa00ea004700800878006c00470022
:1044ac000288be006a004700900078006400470054
:1044bc00110878006c0047001001be00f0ff2f00bf
:1044cc00f1012000800f5100818f59000a003e003d
:1044dc006c0047001000be00000078007f006000f8
:1044ec008002eb00000278000400be00e00f5000d8
:1044fc00e08f58000200320020002000a10037009d
:10450c006a004700100078006e004000ec00470085
:10451c0031187800211078006a00470010007800ec
:10452c0066004000301f7800201778001e00be0087
:10453c00e00f5000e08f58000a003a00640047007a
:10454c001000780010407800e24f50000500360053
:10455c0064004700100078008002b000301f780023
:10456c00201778001e00be00e00f5000e08f5800ae
:10457c0019003a006c0047001000be00c509de00af
:10458c004b0add004501de000201720064004700a9
:10459c001000780068004000100078008000eb00ec
:1045ac00800f5100818f590002003900200020003b
:1045bc007400370064004700100078008002b000df
:1045cc001000be006a01470012017800760141001c
:1045dc000089be003f0037006400470010007800df
:1045ec006a004000100078006101b8004918dd0035
:1045fc00c710de00810070004910dd006601470025
:10460c000089be00240037006a00470010007800c3
:10461c001e01be0059fb0700008fbe001e01be002c
:10462c000080eb008080eb00800f5100818f5900df
:10463c0002003a0010002000520037001e01be009c
:10464c001000200001002000800f5100818f5900c4
:10465c000700360064004700100078007800400026
:10466c001000be00be0f5000ae8f580002003e007e
:10467c0020002000430037006c0047001001be00f2
:10468c00660047001000be000000510081805900f8
:10469c006c0147000089be006c0047001001be0091
:1046ac00660047001000be00800f5100818f59003a
:1046bc00d5ff31001e01be006400470010007800d9
:1046cc00fffa07006a0147001201780076014100e9
:1046dc000089be006a00470010007800720040009c
:1046ec003e1878002e1078006a0047001000780001
:1046fc00760040001000be00e00f5000e08f580024
:10470c0002003a00200020001e0037006a0047001b
:10471c0010007800760040001001be006c004700cd
:10472c001000be00470add004900de0000007200e8
:10473c00c908de0002004000838048006a0147007f
:10474c0012017800760141000089be006400470028
:10475c001000780041032000808040006c0047006e
:10476c0010017800f01f20000000610080804000e4
:10477c006a004700100078007a00400001087800b9
:10478c000000eb000080fa00000006000e00fa00aa
:10479c00881f78006a034700000b78006c00470004
:1047ac00010878006a004700900078006400470018
:1047bc00110878006a004700100078006e00400075
:1047cc001000be000002b0000180b000660347007c
:1047dc00008bbe006a004700100078007600400095
:1047ec001000be00e00f5000e08f580007003200b0
:1047fc00660047001003be00f0ff2f00f1012000ff
:10480c00800f5300818f5b000200360040002000b7
:10481c00c3003700660047001003be00f01f2000e5
:10482c00010020000604780007037800800378005c
:10483c008100780007006400810063008102780029
:10484c00000278000400be00e00f5000e08f58001a
:10485c009f003a006a004700100078007600400084
:10486c001000be0061004000e08048006a02470072
:10487c001402780076024200008abe006a004700eb
:10488c0010007800720040001000be00e00f5000d5
:10489c00e08f580015003a00660047001000be007b
:1048ac00c509de004b0add004501de000201720085
:1048bc006400470010007800680040001000780089
:1048cc008000eb00800f5100818f5900800039006f
:1048dc006a004700100178006000b80076014100c2
:1048ec000089be00400020008d00370066004700a4
:1048fc001000be00c90ade004709dd004902de00d7
:10490c000402710064004700100078006a00400047
:10491c00100078000000e9008000eb000403780030
:10492c0005027800800278008100780005006300a1
:10493c008100620081017800000178000200be0055
:10494c00e00f5000e08f580061003a006a00470009
:10495c0010007800720040001000be006a01470091
:10496c00120278000001be000400780083fa0700f0
:10497c00008fbe001e01be001000200001002000b0
:10498c00800f5100818f590002003e002000200052
:10499c00630037001e01be000080eb008080eb003e
:1049ac00800f5100818f590002003a001000200046
:1049bc005b0037006400470010007800780040006e
:1049cc001000be00be0f5000ae8f580033003e00ea
:1049dc006c004700100078000000e00007003a006f
:1049ec006a004700100178006000b80076014100b1
:1049fc000089be0040002000490037006a004700d3
:104a0c0010007800720040001000be006a014700e0
:104a1c00120278000001be000400780007fd0700b8
:104a2c00008fbe001e00be00e00f5000e08f58004b
:104a3c0002003a0070002000390037001e01be0051
:104a4c001000200001002000800f5100818f5900c0
:104a5c0002003a0020002000310037001e01be0089
:104a6c000080eb008080eb00800f5100818f59009b
:104a7c0002003a0010002000290037001e01be0081
:104a8c0064004700100078002ffe07000000e000d3
:104a9c000200320010002000210037006a0047009d
:104aac0010007800720040003e1878002e1078003c
:104abc001e01be00640047001000780000fa0700d9
:104acc006a01470012017800760141000089be009e
:104adc006a004700100078006e004000e6004700b6
:104aec00311878002110780064004700100078001d
:104afc0041032000808040006600470010017800d0
:104b0c00f01f200000006100808040006a00470018
:104b1c00100078007a004000010878000000eb00db
:104b2c004f0478000080fa00000006000a00fa002a
:104b3c00660147000009780068004700010878000a
:104b4c006600470090007800640047001108780068
:104b5c006011b80066004700100078004cfe07009a
:104b6c00000f78001e0078000000e00036003a00cc
:104b7c008000eb000e80e80001087800660047001a
:104b8c0010007800760040001000be000001be004e
:104b9c00640047001000780025f90700000f78002a
:104bac001e0078000000e00026003a006600470076
:104bbc00100078007a004000100078001040780057
:104bcc00fb4f4000070032006600470010007800e1
:104bdc007a00400010007800104078000004e000db
:104bec000c003a000e80e800100078008000e8000d
:104bfc000e80e800010878000e80e8009000780034
:104c0c006800470010007800808f500004003a00c4
:104c1c000d0037008000eb000e80e80001087800e2
:104c2c00110020006600470010007800d7fe070036
:104c3c00000f78001e0078000000e000cfff32006b
:104c4c0001003700000000001e007800e40f500047
:104c5c0002003a0070002000000f78001e0078005f
:104c6c000080fa00000006000800fa00640147000a
:104c7c0000097800660047000108780066004700cc
:104c8c00100078007a00400065f707008000eb0008
:104c9c00008fbe00640047001000780010407800c0
:104cac00e34f500009003a006600470010007800fe
:104cbc00740040005af707008000eb00c000dd00d4
:104ccc00000020001e1f70001e9770001e00be000a
:104cdc000080fa00000006000800fa00000f7800bf
:104cec000e80e80001087800640047000288be00ce
:104cfc0064004700900078000e80e80010007800f7
:104d0c007a0040008cf707001e00780010407800f5
:104d1c00e34f500008003a00640047001000be004a
:104d2c004008de00800078000e80e800100078005b
:104d3c007400400080f707000080fa0000000600b5
:104d4c000800fa00e600470080087800660047007b
:104d5c00900078000e80e800110878006011b8000f
:104d6c006600470010007800c9fd0700000f7800ae
:104d7c001e0078000000e000020032001e007800e7
:104d8c0049003700660047001000780076004000ac
:104d9c001000be000001be000e80e800100078007c
:104dac00a3f80700000f78001e0078000000e00058
:104dbc0039003a0066004700100078007a00400085
:104dcc0090007800640047001148780064004700a8
:104ddc00104078000004e00003003a00400020007e
:104dec00000f78002f003700660047001000780095
:104dfc007a004000100078006b00400010407800f2
:104e0c00f2c3b300824060006600470010007800d7
:104e1c0064004000014878006600470010007800ec
:104e2c007a004000100078006b00400010407800c1
:104e3c000080fb00680060000000e0000d003a00fc
:104e4c0066004700100078007c004000e600470038
:104e5c0091007800fa80400091017800b2002000a7
:104e6c008000780003007800c0f707000000e00025
:104e7c000b0032008000eb00660047001000780049
:104e8c0042fe0700000f78001e0078000000e000d2
:104e9c00bcff3200030037000000000001003700a7
:104eac00000000001e0078000080fa0000000600e0
:104ebc000600fa00e4004700800878006400470010
:104ecc00900078000e80e800110878001100200096
:104edc00640047001000780014ff0700000f7800f2
:104eec001e0078000000e00023003a006400470038
:104efc0010007800760040001000be000001be00db
:104f0c000e80e8001000780049f80700000f7800c8
:104f1c001e0078000000e00017003a006400470013
:104f2c00100078007a004000100078000202200087
:104f3c008000eb0073f70700640047001000780056
:104f4c007c004000e400470091007800fa804000ab
:104f5c0091017800b20020008000780003007800f6
:104f6c0042f707000e80e8001000780011c0b30073
:104f7c0063004000014878001e0078000080fa00b1
:104f8c00000006001200fa006e01470000097800cc
:104f9c00700047000108780070004700900078000e
:104fac0068004700110878006e0047001000780078
:104fbc00fc0040006a00470001087800b2002000a5
:104fcc00010220006a004700100078004df707002e
:104fdc008000eb0066004700010878006400470081
:104fec00e600470011087800810020000e80e800e0
:104ffc0001087800680047009000780064004700c2
:10500c00100078000080400090407800e0c2b300af
:10501c0080cf500043003a006800470090007800b1
:10502c0064004700100078000080400010407800b9
:10503c00004f780064004700100078008000e80002
:10504c006400470001087800e0c2b3009e4078007d
:10505c0080cf500010003a00640047001000780028
:10506c00e20f50000c003e006a00470090007800f0
:10507c006600470010007800008040001e48780051
:10508c0066004700100078008000e80066004700ca
:10509c0001087800e0ff3700f0c2b3009e407800b2
:1050ac0080cf50000a003200c0c5b3009e4078008b
:1050bc0080cf50000600320000c2b3009e40780042
:1050cc0080cf50000200360060002000e600370060
:1050dc0068004700900078006400470010007800da
:1050ec0080804000700047001000780001087800b4
:1050fc006a00470010007800eb00400000c2b300cb
:10510c001e417800804f510002003e0040c2b300a7
:10511c000100370000c2b300804878000000eb00ab
:10512c00d100370068004700900078006400470009
:10513c00100078000080400010407800004f78008c
:10514c0064004700100078008000e800640047000d
:10515c000108780000c2b3009e40780080cf500058
:10516c009d003600f0c2b3009e40780080cf500006
:10517c000b003200c0c5b3009e40780080cf5000b9
:10518c001b003a000700370064004700100078004d
:10519c008000e80064004700010878000100370037
:1051ac000000000068004700900078006400470091
:1051bc00100078000080400090407800f0c2b300ee
:1051cc0080cf5000f0ff320068004700900078005c
:1051dc006400470010007800008040009040780088
:1051ec00c0c5b30080cf5000e7ff32007b00370012
:1051fc00e0c2b3009e40780080cf50000600320021
:10520c0066004700900078000e80e80010007800df
:10521c00808f5000120039000e80e80010007800da
:10522c00eb0f500004003200e0c2b3009e40780047
:10523c0080cf500002003200600020008a0037004e
:10524c00810020006600470001087800b1002000b2
:10525c000e80e8000108780000000000b1ff370064
:10526c001e4078000004e00006003d009e80fb001c
:10527c00f0072000008060002144290000804000dd
:10528c00104f78001e407800fef607000000e0008a
:10529c00330032006800470090007800640047003b
:1052ac001000780000804000904078006c004700af
:1052bc000148780064004700100078008000e80086
:1052cc0064004700010878006c004700104078002b
:1052dc00f6f607000000e000070032000e80e80040
:1052ec00100078000000e900e6004700910078000b
:1052fc00810f500002003e00600020005a00370071
:10530c006a004700900078006600470010007800a3
:10531c00008040001e4878006600470010007800ae
:10532c008000e80066004700010878006a0047002a
:10533c009000780066004700100078000080400064
:10534c00ec00470011487800660047001000780018
:10535c008000e800660047000108780071ff370004
:10536c001e80fb0080007800204c2900aff607005f
:10537c000000e00002003200600020003a0037001c
:10538c0000c6b3009e40780080cf50000600360067
:10539c00a0c7b3009e40780080cf500002003e00b2
:1053ac0000ceb3001e4f40006a004700900078000a
:1053bc006600470010007800008040001e4878000e
:1053cc0066004700100078008000e8006600470087
:1053dc000108780053ff3700000000006800470008
:1053ec009000780064004700100078008080400036
:1053fc007000470010007800010878006600470034
:10540c00100078000000e00002003a00600020006c
:10541c00150037006a004700100078001040780033
:10542c00fb4f400004003a006a00470090007800ef
:10543c0050c0b300804878006a0047001000780024
:10544c00eb00400000c2b3001e417800804f5100b9
:10545c0002003e0040c0b300010037000040eb00ea
:10546c00804878000000eb000080fa000000060085
:10547c000a00fa006601470000097800680047003e
:10548c000108780066004700900078000e80e80064
:10549c0011087800680047001000780090407800f0
:1054ac00f0c2b30080cf50001500320068004700f6
:1054bc001000780090407800c0c5b30080cf500039
:1054cc00110032000e80e8001000780074004000db
:1054dc001000be0066014700120178006601410011
:1054ec000089be001a0037006800470010007800e1
:1054fc008000e800680047000108780003003700ce
:10550c0000000000010037000000000068004700a8
:10551c001000780090407800f0c2b30080cf5000ab
:10552c00f1ff3200680047001000780090407800ce
:10553c00c0c5b30080cf5000ebff320066004700bf
:10554c00100178006000b800660141000089be00bf
:10555c00680047001000780010407800ff4f5000a2
:10556c000b003e00660047001000780001c8b30035
:10557c007002b000014878006011b8006600470066
:10558c0010007800c2fb0700000f780065003700a0
:10559c006800470080007800660047001000780023
:1055ac0078fe0700000f78001e0078000000e00075
:1055bc0055003a006600470010007800e0fd070037
:1055cc00000f7800660047009000780064004700e8
:1055dc007102b000114878001e0078000000e00055
:1055ec00230032001e007800e40f500048003a00ff
:1055fc0064004700104078008080fb00000220000f
:10560c00008060000000e0001000320064004700e1
:10561c00104078000080fb00640060000000e00097
:10562c0002003a0000000000d9ff37006600470076
:10563c001000780001c8b3007002b0000148780077
